{
  "contractName": "HashValue",
  "abi": [
    {
      "constant": false,
      "inputs": [],
      "name": "renounceOwnership",
      "outputs": [],
      "payable": false,
      "stateMutability": "nonpayable",
      "type": "function"
    },
    {
      "constant": true,
      "inputs": [],
      "name": "owner",
      "outputs": [
        {
          "name": "",
          "type": "address"
        }
      ],
      "payable": false,
      "stateMutability": "view",
      "type": "function"
    },
    {
      "constant": true,
      "inputs": [],
      "name": "isOwner",
      "outputs": [
        {
          "name": "",
          "type": "bool"
        }
      ],
      "payable": false,
      "stateMutability": "view",
      "type": "function"
    },
    {
      "constant": false,
      "inputs": [
        {
          "name": "newOwner",
          "type": "address"
        }
      ],
      "name": "transferOwnership",
      "outputs": [],
      "payable": false,
      "stateMutability": "nonpayable",
      "type": "function"
    },
    {
      "anonymous": false,
      "inputs": [
        {
          "indexed": true,
          "name": "from",
          "type": "address"
        },
        {
          "indexed": false,
          "name": "hashData",
          "type": "uint256"
        }
      ],
      "name": "HashAdded",
      "type": "event"
    },
    {
      "anonymous": false,
      "inputs": [
        {
          "indexed": true,
          "name": "previousOwner",
          "type": "address"
        },
        {
          "indexed": true,
          "name": "newOwner",
          "type": "address"
        }
      ],
      "name": "OwnershipTransferred",
      "type": "event"
    },
    {
      "constant": false,
      "inputs": [
        {
          "name": "hashData",
          "type": "uint256"
        }
      ],
      "name": "addHash",
      "outputs": [
        {
          "name": "",
          "type": "bool"
        }
      ],
      "payable": false,
      "stateMutability": "nonpayable",
      "type": "function"
    },
    {
      "constant": true,
      "inputs": [
        {
          "name": "hashData",
          "type": "uint256"
        }
      ],
      "name": "getHashOwner",
      "outputs": [
        {
          "name": "",
          "type": "address"
        }
      ],
      "payable": false,
      "stateMutability": "view",
      "type": "function"
    },
    {
      "constant": true,
      "inputs": [
        {
          "name": "hashData",
          "type": "uint256"
        }
      ],
      "name": "isRegistered",
      "outputs": [
        {
          "name": "",
          "type": "bool"
        }
      ],
      "payable": false,
      "stateMutability": "view",
      "type": "function"
    },
    {
      "constant": true,
      "inputs": [
        {
          "name": "addr",
          "type": "address"
        }
      ],
      "name": "isAssociated",
      "outputs": [
        {
          "name": "",
          "type": "bool"
        }
      ],
      "payable": false,
      "stateMutability": "view",
      "type": "function"
    },
    {
      "constant": false,
      "inputs": [
        {
          "name": "hashOwner",
          "type": "address"
        },
        {
          "name": "hashData",
          "type": "uint256"
        }
      ],
      "name": "setHash",
      "outputs": [],
      "payable": false,
      "stateMutability": "nonpayable",
      "type": "function"
    }
  ],
  "bytecode": "0x6080604052336000806101000a81548173ffffffffffffffffffffffffffffffffffffffff021916908373ffffffffffffffffffffffffffffffffffffffff1602179055506000809054906101000a900473ffffffffffffffffffffffffffffffffffffffff1673ffffffffffffffffffffffffffffffffffffffff16600073ffffffffffffffffffffffffffffffffffffffff167f8be0079c531659141344cd1fd0a4f28419497f9722a3daafe3b4186f6b6457e060405160405180910390a3610aca806100cf6000396000f3fe608060405260043610610099576000357c0100000000000000000000000000000000000000000000000000000000900463ffffffff1680632af1ea0f1461009e578063579a6988146100f1578063715018a6146101445780638da5cb5b1461015b5780638f32d59b146101b2578063cdf690b3146101e1578063d55fe5821461023c578063f2fde38b146102a5578063fdaa047d146102f6575b600080fd5b3480156100aa57600080fd5b506100d7600480360360208110156100c157600080fd5b8101908080359060200190929190505050610371565b604051808215151515815260200191505060405180910390f35b3480156100fd57600080fd5b5061012a6004803603602081101561011457600080fd5b8101908080359060200190929190505050610447565b604051808215151515815260200191505060405180910390f35b34801561015057600080fd5b50610159610459565b005b34801561016757600080fd5b50610170610594565b604051808273ffffffffffffffffffffffffffffffffffffffff1673ffffffffffffffffffffffffffffffffffffffff16815260200191505060405180910390f35b3480156101be57600080fd5b506101c76105bd565b604051808215151515815260200191505060405180910390f35b3480156101ed57600080fd5b5061023a6004803603604081101561020457600080fd5b81019080803573ffffffffffffffffffffffffffffffffffffffff16906020019092919080359060200190929190505050610614565b005b34801561024857600080fd5b5061028b6004803603602081101561025f57600080fd5b81019080803573ffffffffffffffffffffffffffffffffffffffff16906020019092919050505061069e565b604051808215151515815260200191505060405180910390f35b3480156102b157600080fd5b506102f4600480360360208110156102c857600080fd5b81019080803573ffffffffffffffffffffffffffffffffffffffff1690602001909291905050506106b0565b005b34801561030257600080fd5b5061032f6004803603602081101561031957600080fd5b8101908080359060200190929190505050610738565b604051808273ffffffffffffffffffffffffffffffffffffffff1673ffffffffffffffffffffffffffffffffffffffff16815260200191505060405180910390f35b600061037c82610447565b15801561038f575061038d3361069e565b155b1561043d57336001600084815260200190815260200160002060006101000a81548173ffffffffffffffffffffffffffffffffffffffff021916908373ffffffffffffffffffffffffffffffffffffffff1602179055503373ffffffffffffffffffffffffffffffffffffffff167f30d5efddec4236728024d59693fdb53a406db28b9fbcb84999913318b33ffe87836040518082815260200191505060405180910390a260019050610442565b600090505b919050565b600061045282610775565b9050919050565b6104616105bd565b15156104d5576040517f08c379a00000000000000000000000000000000000000000000000000000000081526004018080602001828103825260208152602001807f4f776e61626c653a2063616c6c6572206973206e6f7420746865206f776e657281525060200191505060405180910390fd5b600073ffffffffffffffffffffffffffffffffffffffff166000809054906101000a900473ffffffffffffffffffffffffffffffffffffffff1673ffffffffffffffffffffffffffffffffffffffff167f8be0079c531659141344cd1fd0a4f28419497f9722a3daafe3b4186f6b6457e060405160405180910390a360008060006101000a81548173ffffffffffffffffffffffffffffffffffffffff021916908373ffffffffffffffffffffffffffffffffffffffff160217905550565b60008060009054906101000a900473ffffffffffffffffffffffffffffffffffffffff16905090565b60008060009054906101000a900473ffffffffffffffffffffffffffffffffffffffff1673ffffffffffffffffffffffffffffffffffffffff163373ffffffffffffffffffffffffffffffffffffffff1614905090565b61061c6105bd565b1515610690576040517f08c379a00000000000000000000000000000000000000000000000000000000081526004018080602001828103825260208152602001807f4f776e61626c653a2063616c6c6572206973206e6f7420746865206f776e657281525060200191505060405180910390fd5b61069a81836107e1565b5050565b60006106a9826108c9565b9050919050565b6106b86105bd565b151561072c576040517f08c379a00000000000000000000000000000000000000000000000000000000081526004018080602001828103825260208152602001807f4f776e61626c653a2063616c6c6572206973206e6f7420746865206f776e657281525060200191505060405180910390fd5b61073581610915565b50565b60006001600083815260200190815260200160002060009054906101000a900473ffffffffffffffffffffffffffffffffffffffff169050919050565b60008073ffffffffffffffffffffffffffffffffffffffff166001600084815260200190815260200160002060009054906101000a900473ffffffffffffffffffffffffffffffffffffffff1673ffffffffffffffffffffffffffffffffffffffff1614159050919050565b806001600084815260200190815260200160002060006101000a81548173ffffffffffffffffffffffffffffffffffffffff021916908373ffffffffffffffffffffffffffffffffffffffff16021790555081600260008373ffffffffffffffffffffffffffffffffffffffff1673ffffffffffffffffffffffffffffffffffffffff168152602001908152602001600020819055508073ffffffffffffffffffffffffffffffffffffffff167f30d5efddec4236728024d59693fdb53a406db28b9fbcb84999913318b33ffe87836040518082815260200191505060405180910390a25050565b600080600260008473ffffffffffffffffffffffffffffffffffffffff1673ffffffffffffffffffffffffffffffffffffffff1681526020019081526020016000205414159050919050565b600073ffffffffffffffffffffffffffffffffffffffff168173ffffffffffffffffffffffffffffffffffffffff16141515156109e0576040517f08c379a00000000000000000000000000000000000000000000000000000000081526004018080602001828103825260268152602001807f4f776e61626c653a206e6577206f776e657220697320746865207a65726f206181526020017f646472657373000000000000000000000000000000000000000000000000000081525060400191505060405180910390fd5b8073ffffffffffffffffffffffffffffffffffffffff166000809054906101000a900473ffffffffffffffffffffffffffffffffffffffff1673ffffffffffffffffffffffffffffffffffffffff167f8be0079c531659141344cd1fd0a4f28419497f9722a3daafe3b4186f6b6457e060405160405180910390a3806000806101000a81548173ffffffffffffffffffffffffffffffffffffffff021916908373ffffffffffffffffffffffffffffffffffffffff1602179055505056fea165627a7a7230582086c5d4f953b06fa10e8afad5be671aebec48707aec4e496f17d329cf8ee784f20029",
  "source": "pragma solidity ^0.5.0;\n\nimport 'openzeppelin-solidity/contracts/ownership/Ownable.sol';\n\n\n/**\n *  HashValue contract\n *      This Smart contract allows for the association of a hash with an Ethereum\n *  address.  One hash can be associate with a single address, one time only.\n *      Contract owner can update associations. \n *      Emits a HashAdded event when an association is added / changed.\n */\ncontract HashValue is Ownable {\n\n    event HashAdded(address indexed from, uint256 hashData);\n\n    mapping (uint256 => address) private _hashValues;\n    mapping (address => uint256) private _associations;\n\n\n    /** \n     * @return whether or not the association was successful\n     */\n    function addHash(uint256 hashData) public returns (bool) {\n        if ((!isRegistered(hashData)) && (!isAssociated(msg.sender))) {\n        \t_hashValues[hashData] = msg.sender;\n        \temit HashAdded(msg.sender, hashData);\n        \treturn true;\n        }\n        else {\n            return false;\n        }\n    }\n\n    /**\n     * @return the address associated with the registered hash\n     */\n    function getHashOwner(uint256 hashData) public view returns (address) {\n    \treturn _hashValues[hashData];\n    }\n\n    /**\n     * @return true if the hash data specified has been registered\n     */\n    function isRegistered(uint256 hashData) public view returns (bool) {\n        return _isHashAssociated(hashData);\n    }\n\n    /**\n     * @return true if the address specified has registered a hash\n     */\n    function isAssociated(address addr) public view returns (bool) {\n        return _isAddressAssociated(addr);\n    }\n\n    /**\n     * @notice onlyOwner function that bypasses existence checks to set hash\n     * for an address.\n     */\n    function setHash(address hashOwner, uint256 hashData) public onlyOwner {\n        _setHashValueForAddress(hashData, hashOwner);\n    }\n\n\n    /**\n     * @return whether or not the hash specified has been registered\n     */\n    function _isHashAssociated(uint256 hashData) private view returns (bool) {\n        return _hashValues[hashData] != address(0x0);\n    }\n\n    /** \n     * @return whether or not the address specified has registered a hash\n     */\n    function _isAddressAssociated(address addr) private view returns (bool) {\n        return _associations[addr] != uint256(0);\n    }\n\n    /**\n     * @notice internal function to set mappings and emit event\n     */\n    function _setHashValueForAddress(uint256 hashData, address addr) private {\n        _hashValues[hashData] = addr;\n        _associations[addr] = hashData;\n\n        emit HashAdded(addr, hashData);\n    }\n\n}",
  "sourcePath": "/Users/psonier/projects/antonym/HashValue/contracts/HashValue.sol",
  "compiler": {
    "name": "solc",
    "version": "0.5.0+commit.1d4f565a.Emscripten.clang"
  },
  "schemaVersion": "3.0.11",
  "updatedAt": "2019-08-13T01:29:17.924Z",
  "devdoc": {
    "methods": {
      "addHash(uint256)": {
        "return": "whether or not the association was successful"
      },
      "getHashOwner(uint256)": {
        "return": "the address associated with the registered hash"
      },
      "isAssociated(address)": {
        "return": "true if the address specified has registered a hash"
      },
      "isOwner()": {
        "details": "Returns true if the caller is the current owner."
      },
      "isRegistered(uint256)": {
        "return": "true if the hash data specified has been registered"
      },
      "owner()": {
        "details": "Returns the address of the current owner."
      },
      "renounceOwnership()": {
        "details": "Leaves the contract without owner. It will not be possible to call `onlyOwner` functions anymore. Can only be called by the current owner.     * > Note: Renouncing ownership will leave the contract without an owner, thereby removing any functionality that is only available to the owner."
      },
      "transferOwnership(address)": {
        "details": "Transfers ownership of the contract to a new account (`newOwner`). Can only be called by the current owner."
      }
    }
  },
  "userdoc": {
    "methods": {
      "setHash(address,uint256)": {
        "notice": "onlyOwner function that bypasses existence checks to set hash for an address."
      }
    },
    "notice": "HashValue contract     This Smart contract allows for the association of a hash with an Ethereum address.  One hash can be associate with a single address, one time only.     Contract owner can update associations.      Emits a HashAdded event when an association is added / changed."
  }
}